{
  "contractName": "TicketsStore",
  "abi": [
    {
      "inputs": [
        {
          "internalType": "uint256",
          "name": "ticketsAmount",
          "type": "uint256"
        }
      ],
      "stateMutability": "nonpayable",
      "type": "constructor"
    },
    {
      "anonymous": false,
      "inputs": [
        {
          "indexed": true,
          "internalType": "address",
          "name": "previousOwner",
          "type": "address"
        },
        {
          "indexed": true,
          "internalType": "address",
          "name": "newOwner",
          "type": "address"
        }
      ],
      "name": "OwnershipTransferred",
      "type": "event"
    },
    {
      "inputs": [],
      "name": "amount",
      "outputs": [
        {
          "internalType": "uint256",
          "name": "",
          "type": "uint256"
        }
      ],
      "stateMutability": "view",
      "type": "function"
    },
    {
      "inputs": [],
      "name": "owner",
      "outputs": [
        {
          "internalType": "address",
          "name": "",
          "type": "address"
        }
      ],
      "stateMutability": "view",
      "type": "function"
    },
    {
      "inputs": [],
      "name": "renounceOwnership",
      "outputs": [],
      "stateMutability": "nonpayable",
      "type": "function"
    },
    {
      "inputs": [
        {
          "internalType": "address",
          "name": "",
          "type": "address"
        }
      ],
      "name": "ticketOwner",
      "outputs": [
        {
          "internalType": "uint256",
          "name": "price",
          "type": "uint256"
        },
        {
          "internalType": "uint256",
          "name": "quantity",
          "type": "uint256"
        }
      ],
      "stateMutability": "view",
      "type": "function"
    },
    {
      "inputs": [
        {
          "internalType": "uint256",
          "name": "",
          "type": "uint256"
        }
      ],
      "name": "ticketsByPrice",
      "outputs": [
        {
          "internalType": "uint256",
          "name": "price",
          "type": "uint256"
        },
        {
          "internalType": "uint256",
          "name": "available",
          "type": "uint256"
        }
      ],
      "stateMutability": "view",
      "type": "function"
    },
    {
      "inputs": [
        {
          "internalType": "address",
          "name": "newOwner",
          "type": "address"
        }
      ],
      "name": "transferOwnership",
      "outputs": [],
      "stateMutability": "nonpayable",
      "type": "function"
    },
    {
      "inputs": [
        {
          "internalType": "uint256",
          "name": "available",
          "type": "uint256"
        },
        {
          "internalType": "uint256",
          "name": "price",
          "type": "uint256"
        }
      ],
      "name": "defineGroup",
      "outputs": [],
      "stateMutability": "nonpayable",
      "type": "function"
    },
    {
      "inputs": [
        {
          "internalType": "uint256",
          "name": "quantity",
          "type": "uint256"
        }
      ],
      "name": "buy",
      "outputs": [],
      "stateMutability": "payable",
      "type": "function"
    },
    {
      "inputs": [],
      "name": "withdraw",
      "outputs": [],
      "stateMutability": "nonpayable",
      "type": "function"
    }
  ],
  "bytecode": "0x608060405234801561001057600080fd5b50604051610eea380380610eea8339818101604052602081101561003357600080fd5b810190808051906020019092919050505060006100546100ff60201b60201c565b9050806000806101000a81548173ffffffffffffffffffffffffffffffffffffffff021916908373ffffffffffffffffffffffffffffffffffffffff1602179055508073ffffffffffffffffffffffffffffffffffffffff16600073ffffffffffffffffffffffffffffffffffffffff167f8be0079c531659141344cd1fd0a4f28419497f9722a3daafe3b4186f6b6457e060405160405180910390a3508060018190555050610107565b600033905090565b610dd4806101166000396000f3fe6080604052600436106100865760003560e01c8063aa8c217c11610059578063aa8c217c14610166578063ae3133fc14610191578063c7c66d46146101fd578063d96a094a14610242578063f2fde38b1461027057610086565b80633ccfd60b1461008b578063715018a6146100a2578063718f2c46146100b95780638da5cb5b1461010f575b600080fd5b34801561009757600080fd5b506100a06102c1565b005b3480156100ae57600080fd5b506100b76103d3565b005b3480156100c557600080fd5b506100f2600480360360208110156100dc57600080fd5b810190808035906020019092919050505061055b565b604051808381526020018281526020019250505060405180910390f35b34801561011b57600080fd5b5061012461057f565b604051808273ffffffffffffffffffffffffffffffffffffffff1673ffffffffffffffffffffffffffffffffffffffff16815260200191505060405180910390f35b34801561017257600080fd5b5061017b6105a8565b6040518082815260200191505060405180910390f35b34801561019d57600080fd5b506101e0600480360360208110156101b457600080fd5b81019080803573ffffffffffffffffffffffffffffffffffffffff1690602001909291905050506105ae565b604051808381526020018281526020019250505060405180910390f35b34801561020957600080fd5b506102406004803603604081101561022057600080fd5b8101908080359060200190929190803590602001909291905050506105d2565b005b61026e6004803603602081101561025857600080fd5b8101908080359060200190929190505050610739565b005b34801561027c57600080fd5b506102bf6004803603602081101561029357600080fd5b81019080803573ffffffffffffffffffffffffffffffffffffffff1690602001909291905050506108fd565b005b6102c9610b0a565b73ffffffffffffffffffffffffffffffffffffffff166000809054906101000a900473ffffffffffffffffffffffffffffffffffffffff1673ffffffffffffffffffffffffffffffffffffffff161461038a576040517f08c379a00000000000000000000000000000000000000000000000000000000081526004018080602001828103825260208152602001807f4f776e61626c653a2063616c6c6572206973206e6f7420746865206f776e657281525060200191505060405180910390fd5b3373ffffffffffffffffffffffffffffffffffffffff166108fc479081150290604051600060405180830381858888f193505050501580156103d0573d6000803e3d6000fd5b50565b6103db610b0a565b73ffffffffffffffffffffffffffffffffffffffff166000809054906101000a900473ffffffffffffffffffffffffffffffffffffffff1673ffffffffffffffffffffffffffffffffffffffff161461049c576040517f08c379a00000000000000000000000000000000000000000000000000000000081526004018080602001828103825260208152602001807f4f776e61626c653a2063616c6c6572206973206e6f7420746865206f776e657281525060200191505060405180910390fd5b600073ffffffffffffffffffffffffffffffffffffffff166000809054906101000a900473ffffffffffffffffffffffffffffffffffffffff1673ffffffffffffffffffffffffffffffffffffffff167f8be0079c531659141344cd1fd0a4f28419497f9722a3daafe3b4186f6b6457e060405160405180910390a360008060006101000a81548173ffffffffffffffffffffffffffffffffffffffff021916908373ffffffffffffffffffffffffffffffffffffffff160217905550565b60036020528060005260406000206000915090508060000154908060010154905082565b60008060009054906101000a900473ffffffffffffffffffffffffffffffffffffffff16905090565b60015481565b60026020528060005260406000206000915090508060000154908060010154905082565b6105da610b0a565b73ffffffffffffffffffffffffffffffffffffffff166000809054906101000a900473ffffffffffffffffffffffffffffffffffffffff1673ffffffffffffffffffffffffffffffffffffffff161461069b576040517f08c379a00000000000000000000000000000000000000000000000000000000081526004018080602001828103825260208152602001807f4f776e61626c653a2063616c6c6572206973206e6f7420746865206f776e657281525060200191505060405180910390fd5b6001548211156106f6576040517f08c379a0000000000000000000000000000000000000000000000000000000008152600401808060200182810382526024815260200180610d2d6024913960400191505060405180910390fd5b6040518060400160405280828152602001838152506003600083815260200190815260200160002060008201518160000155602082015181600101559050505050565b600061074e8234610b1290919063ffffffff16565b905060006003600083815260200190815260200160002060000154116107bf576040517f08c379a0000000000000000000000000000000000000000000000000000000008152600401808060200182810382526028815260200180610d776028913960400191505060405180910390fd5b816003600083815260200190815260200160002060010154101561084b576040517f08c379a000000000000000000000000000000000000000000000000000000000815260040180806020018281038252601e8152602001807f546865726520617265206e6f7420616e79206c656674207469636b657473000081525060200191505060405180910390fd5b604051806040016040528082815260200183815250600260003373ffffffffffffffffffffffffffffffffffffffff1673ffffffffffffffffffffffffffffffffffffffff16815260200190815260200160002060008201518160000155602082015181600101559050506108df826003600084815260200190815260200160002060010154610b5c90919063ffffffff16565b60036000838152602001908152602001600020600101819055505050565b610905610b0a565b73ffffffffffffffffffffffffffffffffffffffff166000809054906101000a900473ffffffffffffffffffffffffffffffffffffffff1673ffffffffffffffffffffffffffffffffffffffff16146109c6576040517f08c379a00000000000000000000000000000000000000000000000000000000081526004018080602001828103825260208152602001807f4f776e61626c653a2063616c6c6572206973206e6f7420746865206f776e657281525060200191505060405180910390fd5b600073ffffffffffffffffffffffffffffffffffffffff168173ffffffffffffffffffffffffffffffffffffffff161415610a4c576040517f08c379a0000000000000000000000000000000000000000000000000000000008152600401808060200182810382526026815260200180610d516026913960400191505060405180910390fd5b8073ffffffffffffffffffffffffffffffffffffffff166000809054906101000a900473ffffffffffffffffffffffffffffffffffffffff1673ffffffffffffffffffffffffffffffffffffffff167f8be0079c531659141344cd1fd0a4f28419497f9722a3daafe3b4186f6b6457e060405160405180910390a3806000806101000a81548173ffffffffffffffffffffffffffffffffffffffff021916908373ffffffffffffffffffffffffffffffffffffffff16021790555050565b600033905090565b6000610b5483836040518060400160405280601a81526020017f536166654d6174683a206469766973696f6e206279207a65726f000000000000815250610ba6565b905092915050565b6000610b9e83836040518060400160405280601e81526020017f536166654d6174683a207375627472616374696f6e206f766572666c6f770000815250610c6c565b905092915050565b60008083118290610c52576040517f08c379a00000000000000000000000000000000000000000000000000000000081526004018080602001828103825283818151815260200191508051906020019080838360005b83811015610c17578082015181840152602081019050610bfc565b50505050905090810190601f168015610c445780820380516001836020036101000a031916815260200191505b509250505060405180910390fd5b506000838581610c5e57fe5b049050809150509392505050565b6000838311158290610d19576040517f08c379a00000000000000000000000000000000000000000000000000000000081526004018080602001828103825283818151815260200191508051906020019080838360005b83811015610cde578082015181840152602081019050610cc3565b50505050905090810190601f168015610d0b5780820380516001836020036101000a031916815260200191505b509250505060405180910390fd5b506000838503905080915050939250505056fe4d6f7265207469636b657473207468616e20746865206d6178696d756d20616d6f756e744f776e61626c653a206e6577206f776e657220697320746865207a65726f2061646472657373546865726520617265206e6f7420616e79207469636b65747320666f7220796f7572206d6f6e6579a26469706673582212208b3afbf7408460f4678a4eacb27a5e5920eb9fad7aadb929fff186e9c01c0f5564736f6c63430006070033",
  "source": "pragma solidity 0.6.7;\n\nimport \"./../node_modules/@openzeppelin/contracts/math/SafeMath.sol\";\nimport \"./../node_modules/@openzeppelin/contracts/access/Ownable.sol\";\n\n\ncontract TicketsStore is Ownable {\n    using SafeMath for uint256;\n\n    uint256 public amount;\n\n    struct Ticket {\n        uint256 price;\n        uint256 quantity;\n    }\n\n    struct TicketGroup {\n        uint256 price;\n        uint256 available;\n    }\n\n    mapping(address => Ticket) public ticketOwner;\n    mapping(uint256 => TicketGroup) public ticketsByPrice;\n\n    constructor(uint256 ticketsAmount) public {\n        amount = ticketsAmount;\n    }\n\n    // Todo: Revert if such a price has been already defined\n    function defineGroup(uint256 available, uint256 price) public onlyOwner {\n        require(available <= amount, \"More tickets than the maximum amount\");\n        ticketsByPrice[price] = TicketGroup(price, available);\n    }\n\n    // Todo: Should be able to buy tickets several times\n    // Todo: Should be able to buy tickets for different prices\n    function buy(uint256 quantity) external payable {\n        uint256 ticketPrice = msg.value.div(quantity);\n\n        require(\n            ticketsByPrice[ticketPrice].price > 0,\n            \"There are not any tickets for your money\"\n        );\n\n        require(\n            ticketsByPrice[ticketPrice].available >= quantity,\n            \"There are not any left tickets\"\n        );\n\n        ticketOwner[msg.sender] = Ticket(ticketPrice, quantity);\n\n        ticketsByPrice[ticketPrice].available = ticketsByPrice[ticketPrice]\n            .available\n            .sub(quantity);\n    }\n\n    // Todo: Consider withdrawing to be unlocked after some period\n    function withdraw() external onlyOwner {\n        msg.sender.transfer(address(this).balance);\n    }\n}\n",
  "sourcePath": "/Users/lyubo/Projects/Hedera/hedera-tickets-contracts/contracts/TicketsStore.sol",
  "compiler": {
    "name": "solc",
    "version": "0.6.7+commit.b8d736ae.Emscripten.clang",
    "optimizer": false,
    "runs": 200
  },
  "schemaVersion": "2.3.3",
  "updatedAt": "2020-05-10T15:15:43.651Z"
}